:030000000200C833
:0C00C800787FE4F6D8FD75810802008105
:100081007508A07D047C007FA01200BB8FA080FCBE
:0700D400C2A01200DBD2A163
:0400DB0000000022FF
:0800DF007F147E71DEFEDFFCE0
:0100E70022F6
:0F009100D2A01200D6C2A01200DBC2A10200DB77
:090070004401FF12000D12004CC6
:080079001200D4D2A00200DB4A
:0A0003008D8212009112000DAF82F1
:10000D00E4FEFDEFC4131313540124FF92A0EF255A
:10001D00E0FF1200D6C2A11200DB0DBD08E5D2A093
:10002D001200DBD2A130A00F0EEED394C840F6C261
:0E003D00A11200DB7F0022C2A11200DB7F01B6
:01004B002292
:10004C00E4FFD2A01200DBFED2A11200DBEF25E010
:10005C00FFA2A0E43342071200DBC2A11200DB0EA8
:03006C00BE08E5E6
:01006F00226E
:0D00AE001200D4C2A11200DBD2A00200DBC0
:0E00A000120003AF0312000D1200790200DF00
:0200BB00AB0791
:0A00BD00120003120091EB12007014
:0100C7002216
:0700E800120091EF120070FD
:0100EF0022EE
:00000001FF
